{
  "contractName": "Boo",
  "abi": [
    {
      "inputs": [],
      "payable": false,
      "stateMutability": "nonpayable",
      "type": "constructor"
    },
    {
      "constant": true,
      "inputs": [],
      "name": "totalSupply",
      "outputs": [
        {
          "internalType": "uint256",
          "name": "",
          "type": "uint256"
        }
      ],
      "payable": false,
      "stateMutability": "view",
      "type": "function"
    }
  ],
  "bytecode": "0x6080604052348015600f57600080fd5b50620f42406000819055506084806100286000396000f3fe6080604052348015600f57600080fd5b506004361060285760003560e01c806318160ddd14602d575b600080fd5b60336049565b6040518082815260200191505060405180910390f35b6000548156fea265627a7a723158206fcd82e898e3d957cc9a3283ef3d3ffa994c57010813a60a78d68c87f1c6c70564736f6c63430005100032",
  "source": "pragma solidity ^ 0.5.16;\n\ncontract Boo {\n\t//Constructor\n\t//Set total number of tokens\n\t//Read total number of tokens\n\tuint256 public totalSupply;\n\n\tconstructor() public{\n\t\ttotalSupply=1000000;\n\t}\n}",
  "sourcePath": "/Users/chaitanyavarmamudundi/Desktop/Blockchain/token_sale/contracts/Boo.sol",
  "compiler": {
    "name": "solc",
    "version": "0.5.16+commit.9c3226ce.Emscripten.clang"
  },
  "schemaVersion": "3.4.1",
  "updatedAt": "2021-06-15T14:25:57.150Z",
  "networkType": "ethereum",
  "devdoc": {
    "methods": {}
  },
  "userdoc": {
    "methods": {}
  }
}